:100000000C942A000C9434000C9434000C943400AA
:100010000C9434000C9434000C9434000C94340090
:100020000C9434000C9434000C9434000C94340080
:100030000C9434000C9434000C9434000C94340070
:100040000C9434000C9434000C9434000C94340060
:100050000C94340011241FBECFE5D8E0DEBFCDBF25
:100060000E9462070C94540A0C940000CF93DF9313
:1000700000D0CDB7DEB789836A838981882F90E06D
:100080008130910591F0823091051CF4892B39F073
:100090001EC08230910579F0039799F018C08AE369
:1000A00090E02A81FC01208312C087E390E02A813E
:1000B000FC0120830CC084E390E02A81FC012083B2
:1000C00006C081E390E02A81FC012083000000004B
:1000D0000F900F90DF91CF910895CF93DF9300D0D1
:1000E0001F92CDB7DEB789836A834B838B818130C2
:1000F00009F067C08981882F90E08130910511F166
:10010000823091051CF4892B41F05BC0823091054F
:1001100071F1039709F440C054C08AE390E02AE3E8
:1001200030E0F9012081622F2A81422F50E021E046
:1001300030E002C0220F331F4A95E2F7262BFC0164
:1001400020833FC087E390E027E330E0F90120817E
:10015000622F2A81422F50E021E030E002C0220FBE
:10016000331F4A95E2F7262BFC0120832AC084E343
:1001700090E024E330E0F9012081622F2A81422FB0
:1001800050E021E030E002C0220F331F4A95E2F731
:10019000262BFC01208315C081E390E021E330E0B1
:1001A000F9012081622F2A81422F50E021E030E0C6
:1001B00002C0220F331F4A95E2F7262BFC01208351
:1001C00000008B81882309F06BC08981882F90E023
:1001D0008130910519F1823091051CF4892B41F091
:1001E0005FC08230910581F1039709F443C058C084
:1001F0008AE390E02AE330E0F9012081622F2A812E
:10020000422F50E021E030E002C0220F331F4A9518
:10021000E2F720952623FC01208342C087E390E08B
:1002200027E330E0F9012081622F2A81422F50E03C
:1002300021E030E002C0220F331F4A95E2F72095FB
:100240002623FC0120832CC084E390E024E330E0EB
:10025000F9012081622F2A81422F50E021E030E015
:1002600002C0220F331F4A95E2F720952623FC0196
:10027000208316C081E390E021E330E0F901208182
:10028000622F2A81422F50E021E030E002C0220F8D
:10029000331F4A95E2F720952623FC0120830000B6
:1002A00000000F900F900F90DF91CF910895CF93A2
:1002B000DF9300D0CDB7DEB789836A838981882F29
:1002C00090E08130910591F0823091051CF4892BEA
:1002D00039F01EC08230910579F0039799F018C06B
:1002E0008BE390E02A81FC01208312C088E390E038
:1002F0002A81FC0120830CC085E390E02A81FC0167
:10030000208306C082E390E02A81FC012083000064
:1003100000000F900F90DF91CF910895CF93DF935E
:1003200000D01F92CDB7DEB789836A834B838B8160
:10033000813009F067C08981882F90E08130910574
:1003400011F1823091051CF4892B41F05BC08230A1
:10035000910571F1039709F440C054C08BE390E01C
:100360002BE330E0F9012081622F2A81422F50E0F7
:1003700021E030E002C0220F331F4A95E2F7262B1E
:10038000FC0120833FC088E390E028E330E0F901DE
:100390002081622F2A81422F50E021E030E002C00C
:1003A000220F331F4A95E2F7262BFC0120832AC037
:1003B00085E390E025E330E0F9012081622F2A8176
:1003C000422F50E021E030E002C0220F331F4A9557
:1003D000E2F7262BFC01208315C082E390E022E3A4
:1003E00030E0F9012081622F2A81422F50E021E084
:1003F00030E002C0220F331F4A95E2F7262BFC01A2
:10040000208300008B81882309F06BC08981882FAD
:1004100090E08130910519F1823091051CF4892B0F
:1004200041F05FC08230910581F1039709F443C028
:1004300058C08BE390E02BE330E0F9012081622F7C
:100440002A81422F50E021E030E002C0220F331F0A
:100450004A95E2F720952623FC01208342C088E3D9
:1004600090E028E330E0F9012081622F2A81422FB9
:1004700050E021E030E002C0220F331F4A95E2F73E
:1004800020952623FC0120832CC085E390E025E302
:1004900030E0F9012081622F2A81422F50E021E0D3
:1004A00030E002C0220F331F4A95E2F72095262341
:1004B000FC01208316C082E390E022E330E0F901E2
:1004C0002081622F2A81422F50E021E030E002C0DB
:1004D000220F331F4A95E2F720952623FC01208343
:1004E000000000000F900F900F90DF91CF910895C2
:1004F000CF93DF931F92CDB7DEB789838981882F91
:1005000090E08130910589F0823091051CF4892BAF
:1005100039F01AC08230910569F0039781F014C058
:1005200089E390E0FC01808110C086E390E0FC014B
:1005300080810BC083E390E0FC01808106C080E3F2
:1005400090E0FC01808101C080E00F90DF91CF91AD
:100550000895CF93DF9300D0CDB7DEB789836A8348
:100560008981882F90E081309105E1F082309105FA
:100570001CF4892B39F046C08230910519F103979C
:1005800089F140C089E390E0FC018081882F90E0F0
:100590002A81222F30E002C0959587952A95E2F7AF
:1005A000817031C086E390E0FC018081882F90E06B
:1005B0002A81222F30E002C0959587952A95E2F78F
:1005C000817021C083E390E0FC018081882F90E05E
:1005D0002A81222F30E002C0959587952A95E2F76F
:1005E000817011C080E390E0FC018081882F90E051
:1005F0002A81222F30E002C0959587952A95E2F74F
:10060000817001C08FEF0F900F90DF91CF9108950F
:10061000CF93DF9300D0CDB7DEB789836A8389811A
:10062000882F90E08130910511F1823091051CF402
:10063000892B41F05BC08230910571F1039709F479
:1006400040C054C08BE390E02BE330E0F9012081FF
:10065000622F2A81422F50E021E030E002C0220FB9
:10066000331F4A95E2F72627FC0120833FC088E329
:1006700090E028E330E0F9012081622F2A81422FA7
:1006800050E021E030E002C0220F331F4A95E2F72C
:100690002627FC0120832AC085E390E025E330E093
:1006A000F9012081622F2A81422F50E021E030E0C1
:1006B00002C0220F331F4A95E2F72627FC01208350
:1006C00015C082E390E022E330E0F9012081622F3F
:1006D0002A81422F50E021E030E002C0220F331F78
:1006E0004A95E2F72627FC012083000000000F90C6
:1006F0000F90DF91CF910895CF93DF93CDB7DEB701
:100700002F970FB6F894DEBF0FBECDBF8F8741E0A5
:1007100060E082E00E948E0140E061E082E00E94A1
:100720008E016F8581E00E94570141E062E082E026
:100730000E948E0180E090E0A0EAB0E489839A8371
:10074000AB83BC8320E030E84BE355E469817A81D8
:100750008B819C810E94BF09DC01CB018D839E832C
:10076000AF83B88720E030E040E85FE36D817E81B1
:100770008F8198850E94390988232CF481E090E0CC
:100780009A8789873FC020E03FEF4FE757E46D81AC
:100790007E818F8198850E94BA0918164CF520E059
:1007A00030E040E251E469817A818B819C810E9432
:1007B000BF09DC01CB01BC01CD010E943E09DC0177
:1007C000CB019A8789870FC08CE291E09C878B8749
:1007D0008B859C850197F1F79C878B8789859A8506
:1007E00001979A87898789859A85892B69F714C02B
:1007F0006D817E818F8198850E943E09DC01CB014D
:100800009A87898789859A859E878D878D859E851C
:100810000197F1F79E878D8740E062E082E00E94B9
:100820008E0100002F960FB6F894DEBF0FBECDBF2D
:10083000DF91CF910895CF93DF93CDB7DEB72F9798
:100840000FB6F894DEBF0FBECDBF8F8740E060E0EB
:1008500082E00E948E0140E061E082E00E948E0111
:100860006F8581E00E94570141E062E082E00E94D2
:100870008E0180E090E0A0EAB0E489839A83AB83A4
:10088000BC8320E030E84BE355E469817A818B81B9
:100890009C810E94BF09DC01CB018D839E83AF83C5
:1008A000B88720E030E040E85FE36D817E818F8192
:1008B00098850E94390988232CF481E090E09A877A
:1008C00089873FC020E03FEF4FE757E46D817E818D
:1008D0008F8198850E94BA0918164CF520E030E007
:1008E00040E251E469817A818B819C810E94BF0939
:1008F000DC01CB01BC01CD010E943E09DC01CB0132
:100900009A8789870FC08CE291E09C878B878B85C3
:100910009C850197F1F79C878B8789859A8501973C
:100920009A87898789859A85892B69F714C06D8193
:100930007E818F8198850E943E09DC01CB019A87D8
:10094000898789859A859E878D878D859E85019764
:10095000F1F79E878D8740E062E082E00E948E0181
:1009600000002F960FB6F894DEBF0FBECDBFDF910B
:10097000CF910895CF93DF93CDB7DEB7E8970FB649
:10098000F894DEBF0FBECDBF41E060E082E00E9480
:100990006D0041E062E082E00E946D0041E061E0B4
:1009A00082E00E946D006FEF81E00E94360080E0DF
:1009B00090E0A8E4B2E489839A83AB83BC8320E00F
:1009C00030E84BE355E469817A818B819C810E94F8
:1009D000BF09DC01CB018FA798ABA9ABBAAB20E074
:1009E00030E040E85FE36FA578A989A99AA90E9441
:1009F000390988232CF481E090E09CAB8BAB3FC09D
:100A000020E03FEF4FE757E46FA578A989A99AA99D
:100A10000E94BA0918164CF520E030E040E251E49B
:100A200069817A818B819C810E94BF09DC01CB01A5
:100A3000BC01CD010E943E09DC01CB019CAB8BAB1C
:100A40000FC08CE291E09EAB8DAB8DA99EA9019762
:100A5000F1F79EAB8DAB8BA99CA901979CAB8BAB9F
:100A60008BA99CA9892B69F714C06FA578A989A9BE
:100A70009AA90E943E09DC01CB019CAB8BAB8BA9F0
:100A80009CA998AF8FAB8FA998AD0197F1F798AF5C
:100A90008FAB88E30E941B0480E090E0A0E0B0E40C
:100AA0008D839E83AF83B88720E030E84BE355E425
:100AB0006D817E818F8198850E94BF09DC01CB0109
:100AC0008DA39EA3AFA3B8A720E030E040E85FE38A
:100AD0006DA17EA18FA198A50E94390988232CF4CD
:100AE00081E090E09AA789A73FC020E03FEF4FE761
:100AF00057E46DA17EA18FA198A50E94BA0918168E
:100B00004CF520E030E040E251E46D817E818F8140
:100B100098850E94BF09DC01CB01BC01CD010E9478
:100B20003E09DC01CB019AA789A70FC08CE291E0B6
:100B30009CA78BA78BA59CA50197F1F79CA78BA7DA
:100B400089A59AA501979AA789A789A59AA5892B0E
:100B500069F714C06DA17EA18FA198A50E943E09DE
:100B6000DC01CB019AA789A789A59AA59EA78DA785
:100B70008DA59EA50197F1F79EA78DA78EE00E94F7
:100B80001B0480E090E0A0E0B0E489879A87AB87FF
:100B9000BC8720E030E84BE355E469857A858B8596
:100BA0009C850E94BF09DC01CB018B8F9C8FAD8F90
:100BB000BE8F20E030E040E85FE36B8D7C8D8D8D53
:100BC0009E8D0E94390988232CF481E090E098A33F
:100BD0008F8F3FC020E03FEF4FE757E46B8D7C8D58
:100BE0008D8D9E8D0E94BA0918164CF520E030E0DC
:100BF00040E251E469857A858B859C850E94BF0916
:100C0000DC01CB01BC01CD010E943E09DC01CB011E
:100C100098A38F8F0FC08CE291E09AA389A389A13A
:100C20009AA10197F1F79AA389A38F8D98A10197B3
:100C300098A38F8F8F8D98A1892B69F714C06B8D26
:100C40007C8D8D8D9E8D0E943E09DC01CB0198A389
:100C50008F8F8F8D98A19CA38BA38BA19CA10197B3
:100C6000F1F79CA38BA381E00E941B0480E090E03D
:100C7000A8E4B2E48D879E87AF87B88B20E030E888
:100C80004BE355E46D857E858F8598890E94BF0969
:100C9000DC01CB01898B9A8BAB8BBC8B20E030E0E5
:100CA00040E85FE369897A898B899C890E943909C8
:100CB00088232CF481E090E09E8B8D8B3FC020E058
:100CC0003FEF4FE757E469897A898B899C890E94B5
:100CD000BA0918164CF520E030E040E251E46D8589
:100CE0007E858F8598890E94BF09DC01CB01BC01FC
:100CF000CD010E943E09DC01CB019E8B8D8B0FC084
:100D00008CE291E0988F8F8B8F89988D0197F1F706
:100D1000988F8F8B8D899E8901979E8B8D8B8D8966
:100D20009E89892B69F714C069897A898B899C8986
:100D30000E943E09DC01CB019E8B8D8B8D899E89A3
:100D40009A8F898F898D9A8D0197F1F79A8F898F64
:100D50000000E8960FB6F894DEBF0FBECDBFDF915E
:100D6000CF910895CF93DF9300D0CDB7DEB78983BD
:100D70006A838981882321F48A8180580E941B0418
:100D80008981813021F48A8180540E941B040000F3
:100D90000F900F90DF91CF910895CF93DF9300D004
:100DA00000D0CDB7DEB79B838A836C8319820EC0D7
:100DB0008981882F90E02A813B81820F931FFC015B
:100DC00080810E947C0389818F5F898399818C81D6
:100DD000981770F300000F900F900F900F90DF9115
:100DE000CF910895CF93DF93CDB7DEB727970FB696
:100DF000F894DEBF0FBECDBF9F838E8381E090E06D
:100E00009A8389830DC089819A81880F991F9C01DB
:100E1000220F331F220F331F820F931F9A83898360
:100E20008E819F8129813A81B9010E941609CB01E7
:100E30000A9748F789819A819C838B8335C08E817C
:100E40009F812B813C81B9010E941609CB01AC0125
:100E50009A01ADECBCEC0E942A099695879596956F
:100E6000879596958795880F991F9C01220F331FB0
:100E7000220F331F820F931F9A01281B390BC901C0
:100E80008D838D81805D0E947C038B819C819C0180
:100E9000ADECBCEC0E942A099695879596958795AE
:100EA000969587959C838B838B819C81892B39F6C2
:100EB000000027960FB6F894DEBF0FBECDBFDF91BE
:100EC000CF910895CF93DF93CDB7DEB7A0970FB63C
:100ED000F894DEBF0FBECDBF0E94BA040E94700816
:100EE000CE014D960E94A5088D8D9E8D0E94F20622
:100EF0008D8D9E8D9E01215E3F4FB9010E94F108AC
:100F000060E081E00E94B2068F8D98A10E94F206F7
:100F100080E090E0AAEFB3E489839A83AB83BC833B
:100F200020E030E84BE355E469817A818B819C8134
:100F30000E94BF09DC01CB018B8B9C8BAD8BBE8BE0
:100F400020E030E040E85FE36B897C898D899E89F1
:100F50000E94390988232CF481E090E0988F8F8BD0
:100F60003FC020E03FEF4FE757E46B897C898D89D4
:100F70009E890E94BA0918164CF520E030E040E244
:100F800051E469817A818B819C810E94BF09DC01D7
:100F9000CB01BC01CD010E943E09DC01CB01988F41
:100FA0008F8B0FC08CE291E09A8F898F898D9A8DFB
:100FB0000197F1F79A8F898F8F89988D0197988F74
:100FC0008F8B8F89988D892B69F714C06B897C89E9
:100FD0008D899E890E943E09DC01CB01988F8F8B01
:100FE0008F89988D9C8F8B8F8B8D9C8D0197F1F7BE
:100FF0009C8F8B8F81E00E941B0480E090E0A0EA30
:10100000B1E48D839E83AF83B88720E030E84BE363
:1010100055E46D817E818F8198850E94BF09DC0136
:10102000CB0189879A87AB87BC8720E030E040E816
:101030005FE369857A858B859C850E9439098823C1
:101040002CF481E090E09E878D873FC020E03FEF49
:101050004FE757E469857A858B859C850E94BA099C
:1010600018164CF520E030E040E251E46D817E81BD
:101070008F8198850E94BF09DC01CB01BC01CD01A5
:101080000E943E09DC01CB019E878D870FC08CE258
:1010900091E0988B8F878F8598890197F1F7988BCE
:1010A0008F878D859E8501979E878D878D859E85EF
:1010B000892B69F714C069857A858B859C850E9488
:1010C0003E09DC01CB019E878D878D859E859A8B9D
:1010D000898B89899A890197F1F79A8B898B00CF3F
:1010E000CF93DF93CDB7DEB78BE390E02BE330E017
:1010F000F90120812E7FFC01208387E290E027E226
:1011000030E0F90120812064FC01208387E290E037
:1011100027E230E0F90120812062FC01208386E291
:1011200090E026E230E0F90120812460FC01208378
:1011300086E290E026E230E0F90120812068FC019F
:1011400020830000DF91CF910895CF93DF9300D0EB
:1011500000D0CDB7DEB79C838B8386E290E026E299
:1011600030E0F90120812064FC012083000086E248
:1011700090E0FC0180818295869586958370882F0A
:1011800090E081709927892B91F784E290E0FC012F
:1011900080818295869586958370282F30E085E240
:1011A00090E0FC018081882F90E0880F991F880FC4
:1011B000991F820F931F9A83898389819A819C0149
:1011C000220F331F220F331F8B819C81FC0131833F
:1011D000208300000F900F900F900F90DF91CF9120
:1011E0000895CF93DF9300D000D0CDB7DEB79A83B8
:1011F00089837C836B8389819A819C01ADECBCECF3
:101200000E942A099C013695279536952795369593
:1012100027958B819C81FC013183208300000F90F6
:101220000F900F900F90DF91CF910895AA1BBB1BD9
:1012300051E107C0AA1FBB1FA617B70710F0A61BD6
:10124000B70B881F991F5A95A9F780959095BC01F7
:10125000CD010895A29FB001B39FC001A39F700D5F
:10126000811D1124911DB29F700D811D1124911DAE
:1012700008950E946D0908F481E008950E9499097B
:1012800088F09F5798F0B92F9927B751B0F0E1F047
:10129000660F771F881F991F1AF0BA95C9F714C0F7
:1012A000B13091F00E94B309B1E008950C94B309F4
:1012B000672F782F8827B85F39F0B93FCCF3869530
:1012C00077956795B395D9F73EF49095809570958D
:1012D00061957F4F8F4F9F4F0895990F0008550FCD
:1012E000AA0BE0E8FEEF16161706E807F907C0F0AC
:1012F00012161306E407F50798F0621B730B840BB4
:10130000950B39F40A2661F0232B242B252B21F48D
:1013100008950A2609F4A140A6958FEF811D811D2D
:10132000089557FD9058440F551F59F05F3F71F0D5
:101330004795880F97FB991F61F09F3F79F087953C
:101340000895121613061406551FF2CF4695F1DFC5
:1013500008C0161617061806991FF1CF8695710555
:10136000610508940895E894BB2766277727CB0189
:1013700097F908950E946D0908F48FEF08950E946F
:10138000D2090C94430A0E94350A38F00E943C0AA4
:1013900020F0952311F00C942C0A0C94320A11249D
:1013A0000C94B4090E94910970F3959FC1F3950FB5
:1013B00050E0551F629FF001729FBB27F00DB11DD9
:1013C000639FAA27F00DB11DAA1F649F6627B00D69
:1013D000A11D661F829F2227B00DA11D621F739F52
:1013E000B00DA11D621F839FA00D611D221F749F60
:1013F0003327A00D611D231F849F600D211D822FA7
:10140000762F6A2F11249F5750409AF0F1F08823CD
:101410004AF0EE0FFF1FBB1F661F771F881F9150FA
:101420005040A9F79E3F510580F00C942C0A0C9473
:10143000B4095F3FE4F3983ED4F3869577956795BA
:10144000B795F795E7959F5FC1F7FE2B880F911D24
:101450009695879597F9089597F99F6780E870E0CA
:1014600060E008959FEF80EC089500240A9416161A
:10147000170618060906089500240A941216130682
:10148000140605060895092E0394000C11F4882310
:1014900052F0BB0F40F4BF2B11F460FF04C06F5F2C
:0C14A0007F4F8F4F9F4F0895F894FFCFAF
:00000001FF
