:100000000C942A000C9434000C9434000C943400AA
:100010000C9434000C9434000C9434000C94340090
:100020000C9434000C9434000C9434000C94340080
:100030000C9434000C9434000C9434000C94340070
:100040000C9434000C9434000C9434000C94340060
:100050000C94340011241FBECFE5D8E0DEBFCDBF25
:100060000E94C4030C946F050C940000CF93DF939F
:1000700000D0CDB7DEB789836A838981882F90E06D
:100080008130910591F0823091051CF4892B39F073
:100090001EC08230910579F0039799F018C08AE369
:1000A00090E02A81FC01208318C087E390E02A8138
:1000B000FC01208312C084E390E02A81FC012083AC
:1000C0000CC081E390E02A81FC01208306C08AE312
:1000D00090E02FEFFC012083000000000F900F90B4
:1000E000DF91CF910895CF93DF9300D01F92CDB7CA
:1000F000DEB789836A834B838B81813009F071C0BD
:100100008981882F90E08130910511F1823091052D
:100110001CF4892B41F05BC08230910571F103978B
:1001200009F440C054C08AE390E02AE330E0F901CA
:100130002081622F2A81422F50E021E030E002C06E
:10014000220F331F4A95E2F7262BFC01208349C07A
:1001500087E390E027E330E0F9012081622F2A81D4
:10016000422F50E021E030E002C0220F331F4A95B9
:10017000E2F7262BFC01208334C084E390E024E3E3
:1001800030E0F9012081622F2A81422F50E021E0E6
:1001900030E002C0220F331F4A95E2F7262BFC0104
:1001A00020831FC081E390E021E330E0F90120814A
:1001B000622F2A81422F50E021E030E002C0220F5E
:1001C000331F4A95E2F7262BFC0120830AC08AE3FD
:1001D00090E02AE330E0F90120812E7FFC012083AA
:1001E00000008B81882309F076C08981882F90E0F8
:1001F0008130910519F1823091051CF4892B41F071
:100200005FC08230910581F1039709F443C058C063
:100210008AE390E02AE330E0F9012081622F2A810D
:10022000422F50E021E030E002C0220F331F4A95F8
:10023000E2F720952623FC01208356C087E390E057
:1002400027E330E0F9012081622F2A81422F50E01C
:1002500021E030E002C0220F331F4A95E2F72095DB
:100260002623FC01208340C084E390E024E330E0B7
:10027000F9012081622F2A81422F50E021E030E0F5
:1002800002C0220F331F4A95E2F720952623FC0176
:1002900020832AC081E390E021E330E0F90120814E
:1002A000622F2A81422F50E021E030E002C0220F6D
:1002B000331F4A95E2F720952623FC01208314C0C2
:1002C0008AE390E02AE330E0F90120812E7FFC01EF
:1002D0002083000009C08AE390E02AE330E0F901BE
:1002E00020812E7FFC01208300000F900F900F9043
:1002F000DF91CF910895CF93DF9300D0CDB7DEB7D4
:1003000089836A838981882F90E08130910591F0FB
:10031000823091051CF4892B39F01EC08230910582
:1003200079F0039799F018C08BE390E02A81FC01E3
:10033000208318C088E390E02A81FC01208312C04A
:1003400085E390E02A81FC0120830CC082E390E0E9
:100350002A81FC01208306C08BE390E02FEFFC0193
:100360002083000000000F900F90DF91CF9108953F
:10037000CF93DF9300D01F92CDB7DEB789836A8316
:100380004B838B81813009F071C08981882F90E087
:100390008130910511F1823091051CF4892B41F0D7
:1003A0005BC08230910571F1039709F440C054C0DD
:1003B0008BE390E02BE330E0F9012081622F2A816A
:1003C000422F50E021E030E002C0220F331F4A9557
:1003D000E2F7262BFC01208349C088E390E028E364
:1003E00030E0F9012081622F2A81422F50E021E084
:1003F00030E002C0220F331F4A95E2F7262BFC01A2
:10040000208334C085E390E025E330E0F9012081CA
:10041000622F2A81422F50E021E030E002C0220FFB
:10042000331F4A95E2F7262BFC0120831FC082E38D
:1004300090E022E330E0F9012081622F2A81422FEF
:1004400050E021E030E002C0220F331F4A95E2F76E
:10045000262BFC0120830AC08BE390E02BE330E0E5
:10046000F90120812E7FFC01208300008B818823ED
:1004700009F076C08981882F90E08130910519F1CB
:10048000823091051CF4892B41F05FC082309105C8
:1004900081F1039709F443C058C08BE390E02BE34C
:1004A00030E0F9012081622F2A81422F50E021E0C3
:1004B00030E002C0220F331F4A95E2F72095262331
:1004C000FC01208356C088E390E028E330E0F90186
:1004D0002081622F2A81422F50E021E030E002C0CB
:1004E000220F331F4A95E2F720952623FC01208333
:1004F00040C085E390E025E330E0F9012081622FE0
:100500002A81422F50E021E030E002C0220F331F49
:100510004A95E2F720952623FC0120832AC082E336
:1005200090E022E330E0F9012081622F2A81422FFE
:1005300050E021E030E002C0220F331F4A95E2F77D
:1005400020952623FC01208314C08BE390E02BE34D
:1005500030E0F90120812E7FFC012083000009C0DA
:100560008BE390E02BE330E0F90120812E7FFC014A
:10057000208300000F900F900F90DF91CF9108958E
:10058000CF93DF931F92CDB7DEB789838981882F00
:1005900090E08130910589F0823091051CF4892B1F
:1005A00039F01AC08230910569F0039781F014C0C8
:1005B00089E390E0FC01808110C086E390E0FC01BB
:1005C00080810BC083E390E0FC01808106C080E362
:1005D00090E0FC01808101C080E00F90DF91CF911D
:1005E0000895CF93DF9300D0CDB7DEB789836A83B8
:1005F0008981882F90E081309105E1F0823091056A
:100600001CF4892B39F046C08230910519F103970B
:1006100089F140C089E390E0FC018081882F90E05F
:100620002A81222F30E002C0959587952A95E2F71E
:10063000817031C086E390E0FC018081882F90E0DA
:100640002A81222F30E002C0959587952A95E2F7FE
:10065000817021C083E390E0FC018081882F90E0CD
:100660002A81222F30E002C0959587952A95E2F7DE
:10067000817011C080E390E0FC018081882F90E0C0
:100680002A81222F30E002C0959587952A95E2F7BE
:10069000817001C08FEF0F900F90DF91CF9108957F
:1006A000CF93DF9300D0CDB7DEB789836A8389818A
:1006B000882F90E08130910511F1823091051CF472
:1006C000892B41F05BC08230910571F1039709F4E9
:1006D00040C054C08BE390E02BE330E0F90120816F
:1006E000622F2A81422F50E021E030E002C0220F29
:1006F000331F4A95E2F72627FC0120833FC088E399
:1007000090E028E330E0F9012081622F2A81422F16
:1007100050E021E030E002C0220F331F4A95E2F79B
:100720002627FC0120832AC085E390E025E330E002
:10073000F9012081622F2A81422F50E021E030E030
:1007400002C0220F331F4A95E2F72627FC012083BF
:1007500015C082E390E022E330E0F9012081622FAE
:100760002A81422F50E021E030E002C0220F331FE7
:100770004A95E2F72627FC012083000000000F9035
:100780000F90DF91CF910895CF93DF93CDB7DEB770
:100790002E970FB6F894DEBF0FBECDBF40E064E0E9
:1007A00081E00E94730041E064E081E00E94B801B2
:1007B00041E067E083E00E94730067E083E00E940D
:1007C000500380E090E0AFE2B4E489839A83AB8386
:1007D000BC8320E030E84BE355E469817A818B816A
:1007E0009C810E94DA04DC01CB018D839E83AF8360
:1007F000B88720E030E040E85FE36D817E818F8143
:1008000098850E94540488232CF481E090E09A8714
:1008100089873FC020E03FEF4FE757E46D817E813D
:100820008F8198850E94D50418164CF520E030E0A1
:1008300040E251E469817A818B819C810E94DA04D3
:10084000DC01CB01BC01CD010E945904DC01CB01CC
:100850009A8789870FC08CE291E09C878B878B8574
:100860009C850197F1F79C878B8789859A850197ED
:100870009A87898789859A85892B69F714C06D8144
:100880007E818F8198850E945904DC01CB019A8773
:10089000898789859A859E878D878D859E85019715
:1008A000F1F79E878D8789CF0E94880408F481E044
:1008B00008950E94B40488F09F5798F0B92F9927A3
:1008C000B751B0F0E1F0660F771F881F991F1AF03B
:1008D000BA95C9F714C0B13091F00E94CE04B1E0CE
:1008E00008950C94CE04672F782F8827B85F39F0CD
:1008F000B93FCCF3869577956795B395D9F73EF4D4
:1009000090958095709561957F4F8F4F9F4F08957B
:10091000990F0008550FAA0BE0E8FEEF1616170610
:10092000E807F907C0F012161306E407F50798F078
:10093000621B730B840B950B39F40A2661F0232B91
:10094000242B252B21F408950A2609F4A140A6950D
:100950008FEF811D811D089557FD9058440F551F3D
:1009600059F05F3F71F04795880F97FB991F61F031
:100970009F3F79F087950895121613061406551FA8
:10098000F2CF4695F1DF08C0161617061806991F14
:10099000F1CF86957105610508940895E894BB2709
:1009A00066277727CB0197F908950E94880408F4F9
:1009B0008FEF08950E94ED040C945E050E9450058F
:1009C00038F00E94570520F0952311F00C9447054C
:1009D0000C944D0511240C94CF040E94AC0470F3C8
:1009E000959FC1F3950F50E0551F629FF001729FD4
:1009F000BB27F00DB11D639FAA27F00DB11DAA1FE3
:100A0000649F6627B00DA11D661F829F2227B00D2F
:100A1000A11D621F739FB00DA11D621F839FA00DBA
:100A2000611D221F749F3327A00D611D231F849F0A
:100A3000600D211D822F762F6A2F11249F57504061
:100A40009AF0F1F088234AF0EE0FFF1FBB1F661FDC
:100A5000771F881F91505040A9F79E3F510580F0A5
:100A60000C9447050C94CF045F3FE4F3983ED4F315
:100A7000869577956795B795F795E7959F5FC1F749
:100A8000FE2B880F911D9695879597F9089597F9F4
:100A90009F6780E870E060E008959FEF80EC089524
:100AA00000240A941616170618060906089500244D
:100AB0000A9412161306140605060895092E0394C7
:100AC000000C11F4882352F0BB0F40F4BF2B11F43B
:100AD00060FF04C06F5F7F4F8F4F9F4F0895F89462
:020AE000FFCF46
:00000001FF
