:100000000C942A000C943F000C943F000C943F0089
:100010000C943F000C943F000C943F000C943F0064
:100020000C943F000C943F000C943F000C943F0054
:100030000C943F000C943F000C943F000C943F0044
:100040000C943F000C943F000C943F000C943F0034
:100050000C943F0011241FBECFE5D8E0DEBFCDBF1A
:1000600010E0A0E6B0E0EAEAF7E102C005900D92E8
:10007000AA36B107D9F70E9463070C94D30B0C94EE
:100080000000CF93DF9300D0CDB7DEB789836A83BA
:100090008981882F90E08130910591F0823091051F
:1000A0001CF4892B39F01EC08230910579F003973A
:1000B00099F018C08AE390E02A81FC01208312C0E5
:1000C00087E390E02A81FC0120830CC084E390E068
:1000D0002A81FC01208306C081E390E02A81FC0193
:1000E0002083000000000F900F90DF91CF910895C2
:1000F000CF93DF9300D01F92CDB7DEB789836A8399
:100100004B838B81813009F067C08981882F90E013
:100110008130910511F1823091051CF4892B41F059
:100120005BC08230910571F1039709F440C054C05F
:100130008AE390E02AE330E0F9012081622F2A81EE
:10014000422F50E021E030E002C0220F331F4A95D9
:10015000E2F7262BFC0120833FC087E390E027E3F2
:1001600030E0F9012081622F2A81422F50E021E006
:1001700030E002C0220F331F4A95E2F7262BFC0124
:1001800020832AC084E390E024E330E0F901208159
:10019000622F2A81422F50E021E030E002C0220F7E
:1001A000331F4A95E2F7262BFC01208315C081E31B
:1001B00090E021E330E0F9012081622F2A81422F73
:1001C00050E021E030E002C0220F331F4A95E2F7F1
:1001D000262BFC01208300008B81882309F06BC053
:1001E0008981882F90E08130910519F18230910545
:1001F0001CF4892B41F05FC08230910581F1039797
:1002000009F443C058C08AE390E02AE330E0F901E2
:100210002081622F2A81422F50E021E030E002C08D
:10022000220F331F4A95E2F720952623FC012083F5
:1002300042C087E390E027E330E0F9012081622F9C
:100240002A81422F50E021E030E002C0220F331F0C
:100250004A95E2F720952623FC0120832CC084E3F5
:1002600090E024E330E0F9012081622F2A81422FBF
:1002700050E021E030E002C0220F331F4A95E2F740
:1002800020952623FC01208316C081E390E021E322
:1002900030E0F9012081622F2A81422F50E021E0D5
:1002A00030E002C0220F331F4A95E2F72095262343
:1002B000FC012083000000000F900F900F90DF9151
:1002C000CF910895CF93DF9300D0CDB7DEB7898368
:1002D0006A838981882F90E08130910591F0823086
:1002E00091051CF4892B39F01EC08230910579F0FC
:1002F000039799F018C08BE390E02A81FC012083DA
:1003000012C088E390E02A81FC0120830CC085E3C1
:1003100090E02A81FC01208306C082E390E02A81DC
:10032000FC012083000000000F900F90DF91CF911F
:100330000895CF93DF9300D01F92CDB7DEB78983A6
:100340006A834B838B81813009F067C08981882F54
:1003500090E08130910511F1823091051CF4892BD8
:1003600041F05BC08230910571F1039709F440C000
:1003700054C08BE390E02BE330E0F9012081622F41
:100380002A81422F50E021E030E002C0220F331FCB
:100390004A95E2F7262BFC0120833FC088E390E0DA
:1003A00028E330E0F9012081622F2A81422F50E0BA
:1003B00021E030E002C0220F331F4A95E2F7262BDE
:1003C000FC0120832AC085E390E025E330E0F901B9
:1003D0002081622F2A81422F50E021E030E002C0CC
:1003E000220F331F4A95E2F7262BFC01208315C00C
:1003F00082E390E022E330E0F9012081622F2A813C
:10040000422F50E021E030E002C0220F331F4A9516
:10041000E2F7262BFC01208300008B81882309F062
:100420006BC08981882F90E08130910519F182306D
:1004300091051CF4892B41F05FC08230910581F158
:10044000039709F443C058C08BE390E02BE330E0FE
:10045000F9012081622F2A81422F50E021E030E013
:1004600002C0220F331F4A95E2F720952623FC0194
:10047000208342C088E390E028E330E0F901208146
:10048000622F2A81422F50E021E030E002C0220F8B
:10049000331F4A95E2F720952623FC0120832CC0C8
:1004A00085E390E025E330E0F9012081622F2A8185
:1004B000422F50E021E030E002C0220F331F4A9566
:1004C000E2F720952623FC01208316C082E390E00A
:1004D00022E330E0F9012081622F2A81422F50E08F
:1004E00021E030E002C0220F331F4A95E2F7209549
:1004F0002623FC012083000000000F900F900F9036
:10050000DF91CF910895CF93DF931F92CDB7DEB7E0
:1005100089838981882F90E08130910589F082302C
:1005200091051CF4892B39F01AC08230910569F0CD
:10053000039781F014C089E390E0FC01808110C032
:1005400086E390E0FC0180810BC083E390E0FC0136
:10055000808106C080E390E0FC01808101C080E0E2
:100560000F90DF91CF910895CF93DF9300D0CDB757
:10057000DEB789836A838981882F90E08130910575
:10058000E1F0823091051CF4892B39F046C08230AD
:10059000910519F1039789F140C089E390E0FC01CE
:1005A0008081882F90E02A81222F30E002C095952B
:1005B00087952A95E2F7817031C086E390E0FC01CF
:1005C0008081882F90E02A81222F30E002C095950B
:1005D00087952A95E2F7817021C083E390E0FC01C2
:1005E0008081882F90E02A81222F30E002C09595EB
:1005F00087952A95E2F7817011C080E390E0FC01B5
:100600008081882F90E02A81222F30E002C09595CA
:1006100087952A95E2F7817001C08FEF0F900F90B8
:10062000DF91CF910895CF93DF9300D0CDB7DEB7A0
:1006300089836A838981882F90E08130910511F147
:10064000823091051CF4892B41F05BC0823091050A
:1006500071F1039709F440C054C08BE390E02BE3A1
:1006600030E0F9012081622F2A81422F50E021E001
:1006700030E002C0220F331F4A95E2F72627FC0123
:1006800020833FC088E390E028E330E0F901208137
:10069000622F2A81422F50E021E030E002C0220F79
:1006A000331F4A95E2F72627FC0120832AC085E301
:1006B00090E025E330E0F9012081622F2A81422F6A
:1006C00050E021E030E002C0220F331F4A95E2F7EC
:1006D0002627FC01208315C082E390E022E330E06E
:1006E000F9012081622F2A81422F50E021E030E081
:1006F00002C0220F331F4A95E2F72627FC01208310
:10070000000000000F900F90DF91CF910895CF93DC
:10071000DF93CDB7DEB72F970FB6F894DEBF0FBECD
:10072000CDBF8F8741E060E081E00E94990140E009
:1007300061E081E00E9499016F8580E00E94620182
:1007400041E062E081E00E94990180E090E0A0EA4F
:10075000B0E489839A83AB83BC8320E030E84BE329
:1007600055E469817A818B819C810E943E0BDC017A
:10077000CB018D839E83AF83B88720E030E040E8D3
:100780005FE36D817E818F8198850E94B80A8823FE
:100790002CF481E090E09A8789873FC020E03FEF0A
:1007A0004FE757E46D817E818F8198850E94390BD8
:1007B00018164CF520E030E040E251E469817A817E
:1007C0008B819C810E943E0BDC01CB01BC01CD01E1
:1007D0000E94BD0ADC01CB019A8789870FC08CE299
:1007E00091E09C878B878B859C850197F1F79C878F
:1007F0008B8789859A8501979A87898789859A85C4
:10080000892B69F714C06D817E818F8198850E9444
:10081000BD0ADC01CB019A87898789859A859E87E5
:100820008D878D859E850197F1F79E878D8740E0A6
:1008300062E081E00E94990100002F960FB6F894C3
:10084000DEBF0FBECDBFDF91CF910895CF93DF9371
:10085000CDB7DEB72F970FB6F894DEBF0FBECDBF72
:100860008F8740E060E081E00E94990140E061E014
:1008700081E00E9499016F8580E00E94620141E061
:1008800062E081E00E94990180E090E0A0EAB0E49B
:1008900089839A83AB83BC8320E030E84BE355E443
:1008A00069817A818B819C810E943E0BDC01CB01A6
:1008B0008D839E83AF83B88720E030E040E85FE31C
:1008C0006D817E818F8198850E94B80A88232CF4DF
:1008D00081E090E09A8789873FC020E03FEF4FE7B3
:1008E00057E46D817E818F8198850E94390B18169F
:1008F0004CF520E030E040E251E469817A818B815F
:100900009C810E943E0BDC01CB01BC01CD010E9409
:10091000BD0ADC01CB019A8789870FC08CE291E088
:100920009C878B878B859C850197F1F79C878B87AC
:1009300089859A8501979A87898789859A85892BE0
:1009400069F714C06D817E818F8198850E94BD0AF0
:10095000DC01CB019A87898789859A859E878D8757
:100960008D859E850197F1F79E878D8740E062E037
:1009700081E00E94990100002F960FB6F894DEBF27
:100980000FBECDBFDF91CF910895CF93DF93CDB749
:10099000DEB7E8970FB6F894DEBF0FBECDBF41E0DB
:1009A00060E081E00E94780041E062E081E00E9426
:1009B000780041E061E081E00E9478006FEF80E024
:1009C0000E94410080E090E0A8E4B2E489839A8329
:1009D000AB83BC8320E030E84BE355E469817A8146
:1009E0008B819C810E943E0BDC01CB018FA798ABD1
:1009F000A9ABBAAB20E030E040E85FE36FA578A98F
:100A000089A99AA90E94B80A88232CF481E090E071
:100A10009CAB8BAB3FC020E03FEF4FE757E46FA5A7
:100A200078A989A99AA90E94390B18164CF520E0DB
:100A300030E040E251E469817A818B819C810E949F
:100A40003E0BDC01CB01BC01CD010E94BD0ADC01E3
:100A5000CB019CAB8BAB0FC08CE291E09EAB8DAB1E
:100A60008DA99EA90197F1F79EAB8DAB8BA99CA98F
:100A700001979CAB8BAB8BA99CA9892B69F714C000
:100A80006FA578A989A99AA90E94BD0ADC01CB01AA
:100A90009CAB8BAB8BA99CA998AF8FAB8FA998AD62
:100AA0000197F1F798AF8FAB88E30E94260480E0AE
:100AB00090E0A0E0B0E48D839E83AF83B88720E010
:100AC00030E84BE355E46D817E818F8198850E94EB
:100AD0003E0BDC01CB018DA39EA3AFA3B8A720E002
:100AE00030E040E85FE36DA17EA18FA198A50E9450
:100AF000B80A88232CF481E090E09AA789A73FC028
:100B000020E03FEF4FE757E46DA17EA18FA198A5AC
:100B10000E94390B18164CF520E030E040E251E419
:100B20006D817E818F8198850E943E0BDC01CB0117
:100B3000BC01CD010E94BD0ADC01CB019AA789A7A7
:100B40000FC08CE291E09CA78BA78BA59CA5019779
:100B5000F1F79CA78BA789A59AA501979AA789A7C2
:100B600089A59AA5892B69F714C06DA17EA18FA1D3
:100B700098A50E94BD0ADC01CB019AA789A789A587
:100B80009AA59EA78DA78DA59EA50197F1F79EA773
:100B90008DA78EE00E94260480E090E0A0E0B0E403
:100BA00089879A87AB87BC8720E030E84BE355E420
:100BB00069857A858B859C850E943E0BDC01CB0183
:100BC0008B8F9C8FAD8FBE8F20E030E040E85FE3DD
:100BD0006B8D7C8D8D8D9E8D0E94B80A88232CF4A0
:100BE00081E090E098A38F8F3FC020E03FEF4FE778
:100BF00057E46B8D7C8D8D8D9E8D0E94390B181660
:100C00004CF520E030E040E251E469857A858B853F
:100C10009C850E943E0BDC01CB01BC01CD010E94F2
:100C2000BD0ADC01CB0198A38F8F0FC08CE291E04D
:100C30009AA389A389A19AA10197F1F79AA389A3FD
:100C40008F8D98A1019798A38F8F8F8D98A1892B55
:100C500069F714C06B8D7C8D8D8D9E8D0E94BD0AB1
:100C6000DC01CB0198A38F8F8F8D98A19CA38BA3C0
:100C70008BA19CA10197F1F79CA38BA381E00E941B
:100C8000260480E090E0A8E4B2E48D879E87AF87D9
:100C9000B88B20E030E84BE355E46D857E858F8589
:100CA00098890E943E0BDC01CB01898B9A8BAB8B20
:100CB000BC8B20E030E040E85FE369897A898B896A
:100CC0009C890E94B80A88232CF481E090E09E8BD6
:100CD0008D8B3FC020E03FEF4FE757E469897A8969
:100CE0008B899C890E94390B18164CF520E030E066
:100CF00040E251E46D857E858F8598890E943E0B88
:100D0000DC01CB01BC01CD010E94BD0ADC01CB019D
:100D10009E8B8D8B0FC08CE291E0988F8F8B8F898B
:100D2000988D0197F1F7988F8F8B8D899E89019708
:100D30009E8B8D8B8D899E89892B69F714C069895B
:100D40007A898B899C890E94BD0ADC01CB019E8B2C
:100D50008D8B8D899E899A8F898F898D9A8D019728
:100D6000F1F79A8F898F0000E8960FB6F894DEBFEE
:100D70000FBECDBFDF91CF910895CF93DF9300D009
:100D8000CDB7DEB789836A838981882321F48A817C
:100D900080580E9426048981813021F48A81805400
:100DA0000E94260400000F900F90DF91CF910895CC
:100DB000CF93DF9300D000D0CDB7DEB79B838A837B
:100DC0006C8319820EC08981882F90E02A813B8133
:100DD000820F931FFC0180810E94870389818F5FAE
:100DE000898399818C81981770F300000F900F9080
:100DF0000F900F90DF91CF910895CF93DF93CDB7F0
:100E0000DEB727970FB6F894DEBF0FBECDBF9F8326
:100E10008E8381E090E09A8389838E819F819923DC
:100E2000C4F48DE20E9487038E819F819195819504
:100E300091099F838E830DC089819A81880F991FA4
:100E40009C01220F331F220F331F820F931F9A839F
:100E500089838E819F8129813A81B9010E94900AFC
:100E6000CB010A9748F789819A819C838B831CC0A8
:100E70008E819F812B813C81B9010E94A40ACB0104
:100E80002AE030E0B9010E94A40A8D838D81805D43
:100E90000E9487038B819C812AE030E0B9010E9487
:100EA000A40ACB019C838B838B819C811816190625
:100EB000FCF2000027960FB6F894DEBF0FBECDBF40
:100EC000DF91CF910895CF93DF93CDB7DEB70E9426
:100ED000C50460E080E00E94BD0663E080E690E02B
:100EE0000E94D806FFCFCF93DF93CDB7DEB7E99747
:100EF0000FB6F894DEBF0FBECDBF1982F3C0698173
:100F000080E00E94BD0665E084E690E00E94D8067D
:100F100080E090E4ACE1B6E48E839F83A887B98734
:100F200020E030E84BE355E46E817F818885998528
:100F30000E943E0BDC01CB018C8F9D8FAE8FBF8F4B
:100F400020E030E040E85FE36C8D7D8D8E8D9F8DDD
:100F50000E94B80A88232CF481E090E099A388A32A
:100F60003FC020E03FEF4FE757E46C8D7D8D8E8DC5
:100F70009F8D0E94390B18164CF520E030E040E2BE
:100F800051E46E817F81888599850E943E0BDC014A
:100F9000CB01BC01CD010E94BD0ADC01CB0199A3AC
:100FA00088A30FC08CE291E09BA38AA38AA19BA196
:100FB0000197F1F79BA38AA388A199A1019799A30F
:100FC00088A388A199A1892B69F714C06C8D7D8DA8
:100FD0008E8D9F8D0E94BD0ADC01CB0199A388A351
:100FE00088A199A19DA38CA38CA19DA10197F1F744
:100FF0009DA38CA381E00E94260480E090E0A8E4F9
:10100000B2E48E879F87A88BB98B20E030E84BE352
:1010100055E46E857F85888999890E943E0BDC01A5
:10102000CB018A8B9B8BAC8BBD8B20E030E040E802
:101030005FE36A897B898C899D890E94B80A88232D
:101040002CF481E090E09F8B8E8B3FC020E03FEF3F
:101050004FE757E46A897B898C899D890E94390B07
:1010600018164CF520E030E040E251E46E857F85B3
:10107000888999890E943E0BDC01CB01BC01CD011E
:101080000E94BD0ADC01CB019F8B8E8B0FC08CE2CE
:1010900091E0998F888F888D998D0197F1F7998FBD
:1010A000888F8E899F8901979F8B8E8B8E899F89D0
:1010B000892B69F714C06A897B898C899D890E9474
:1010C000BD0ADC01CB019F8B8E8B8E899F899B8F04
:1010D0008A8F8A8D9B8D0197F1F79B8F8A8F8981EB
:1010E0008F5F898389818C3008F409CF8BE08983F5
:1010F000698180E00E94BD0665E084E690E00E9480
:10110000D80680E090E4ACE1B6E48A879B87AC87A0
:10111000BD8720E030E84BE355E46A857B858C850C
:101120009D850E943E0BDC01CB0188AB99ABAAAB3D
:10113000BBAB20E030E040E85FE368A979A98AA969
:101140009BA90E94B80A88232CF481E090E09DAB13
:101150008CAB3FC020E03FEF4FE757E468A979A987
:101160008AA99BA90E94390B18164CF520E030E0A3
:1011700040E251E46A857B858C859D850E943E0B0B
:10118000DC01CB01BC01CD010E94BD0ADC01CB0119
:101190009DAB8CAB0FC08CE291E09FAB8EAB8EA968
:1011A0009FA90197F1F79FAB8EAB8CA99DA90197E1
:1011B0009DAB8CAB8CA99DA9892B69F714C068A93C
:1011C00079A98AA99BA90E94BD0ADC01CB019DAB2C
:1011D0008CAB8CA99DA999AF88AF88AD99AD0197CB
:1011E000F1F799AF88AF81E00E94260480E090E09B
:1011F000A8E4B2E48A839B83AC83BD8320E030E81B
:101200004BE355E46A817B818C819D810E943E0B7A
:10121000DC01CB018EA39FA3A8A7B9A720E030E0F3
:1012200040E85FE36EA17FA188A599A50E94B80A56
:1012300088232CF481E090E09BA78AA73FC020E0A0
:101240003FEF4FE757E46EA17FA188A599A50E94C3
:10125000390B18164CF520E030E040E251E46A8189
:101260007B818C819D810E943E0BDC01CB01BC0106
:10127000CD010E94BD0ADC01CB019BA78AA70FC04C
:101280008CE291E09DA78CA78CA59DA50197F1F715
:101290009DA78CA78AA59BA501979BA78AA78AA52E
:1012A0009BA5892B69F714C06EA17FA188A599A57C
:1012B0000E94BD0ADC01CB019BA78AA78AA59BA53A
:1012C0009FA78EA78EA59FA50197F1F79FA78EA731
:1012D0008981882321F089818150898309CF000089
:1012E0000000E9960FB6F894DEBF0FBECDBFDF91C8
:1012F000CF910895CF93DF93CDB7DEB76E970FB63A
:10130000F894DEBF0FBECDBF1A821982FAC08A815F
:10131000823008F01A8269818A810E94BD0665E0E8
:1013200084E690E00E94D80680E090E4ACE1B6E468
:101330008B839C83AD83BE8320E030E84BE355E490
:101340006B817C818D819E810E943E0BDC01CB01F3
:101350008D8B9E8BAF8BB88F20E030E040E85FE351
:101360006D897E898F89988D0E94B80A88232CF414
:1013700081E090E09A8F898F3FC020E03FEF4FE7F8
:1013800057E46D897E898F89988D0E94390B1816D4
:101390004CF520E030E040E251E46B817C818D81AE
:1013A0009E810E943E0BDC01CB01BC01CD010E945D
:1013B000BD0ADC01CB019A8F898F0FC08CE291E0CE
:1013C0009C8F8B8F8B8D9C8D0197F1F79C8F8B8FD2
:1013D000898D9A8D01979A8F898F898D9A8D892B06
:1013E00069F714C06D897E898F89988D0E94BD0A26
:1013F000DC01CB019A8F898F898D9A8D9E8F8D8F7D
:101400008D8D9E8D0197F1F79E8F8D8F81E00E94CB
:10141000260480E090E0A8E4B2E48F839887A9874F
:10142000BA8720E030E84BE355E46F817885898501
:101430009A850E943E0BDC01CB018B879C87AD8790
:10144000BE8720E030E040E85FE36B857C858D85DA
:101450009E850E94B80A88232CF481E090E0988B46
:101460008F873FC020E03FEF4FE757E46B857C85D7
:101470008D859E850E94390B18164CF520E030E0D2
:1014800040E251E46F81788589859A850E943E0B00
:10149000DC01CB01BC01CD010E94BD0ADC01CB0106
:1014A000988B8F870FC08CE291E09A8B898B89890A
:1014B0009A890197F1F79A8B898B8F859889019783
:1014C000988B8F878F859889892B69F714C06B85D6
:1014D0007C858D859E850E94BD0ADC01CB01988BA1
:1014E0008F878F8598899C8B8B8B8B899C890197A3
:1014F000F1F79C8B8B8B8A818F5F8A8389818B5FCD
:10150000898389818B3008F402CF1A8200006E969D
:101510000FB6F894DEBF0FBECDBFDF91CF91089517
:10152000AA1BBB1B51E107C0AA1FBB1FA617B70709
:1015300010F0A61BB70B881F991F5A95A9F7809525
:101540009095BC01CD01089597FB072E16F40094E9
:1015500007D077FD09D00E94900A07FC05D03EF421
:10156000909581959F4F0895709561957F4F08954F
:101570000E94EC0A08F481E008950E94180B88F09C
:101580009F5798F0B92F9927B751B0F0E1F0660F47
:10159000771F881F991F1AF0BA95C9F714C0B13088
:1015A00091F00E94320BB1E008950C94320B672F3A
:1015B000782F8827B85F39F0B93FCCF386957795B7
:1015C0006795B395D9F73EF49095809570956195A0
:1015D0007F4F8F4F9F4F0895990F0008550FAA0B0B
:1015E000E0E8FEEF16161706E807F907C0F0121636
:1015F0001306E407F50798F0621B730B840B950B39
:1016000039F40A2661F0232B242B252B21F408958D
:101610000A2609F4A140A6958FEF811D811D08952A
:1016200057FD9058440F551F59F05F3F71F0479593
:10163000880F97FB991F61F09F3F79F08795089578
:10164000121613061406551FF2CF4695F1DF08C097
:10165000161617061806991FF1CF869571056105B4
:1016600008940895E894BB2766277727CB0197F95C
:1016700008950E94EC0A08F48FEF08950E94510B20
:101680000C94C20B0E94B40B38F00E94BB0B20F0EC
:10169000952311F00C94AB0B0C94B10B11240C940A
:1016A000330B0E94100B70F3959FC1F3950F50E020
:1016B000551F629FF001729FBB27F00DB11D639F04
:1016C000AA27F00DB11DAA1F649F6627B00DA11DAA
:1016D000661F829F2227B00DA11D621F739FB00D50
:1016E000A11D621F839FA00D611D221F749F3327C0
:1016F000A00D611D231F849F600D211D822F762F59
:101700006A2F11249F5750409AF0F1F088234AF035
:10171000EE0FFF1FBB1F661F771F881F91505040A1
:10172000A9F79E3F510580F00C94AB0B0C94330B42
:101730005F3FE4F3983ED4F3869577956795B79528
:10174000F795E7959F5FC1F7FE2B880F911D969542
:10175000879597F9089597F99F6780E870E060E0B2
:1017600008959FEF80EC089500240A94161617063A
:1017700018060906089500240A9412161306140682
:1017800005060895092E0394000C11F4882352F0E5
:10179000BB0F40F4BF2B11F460FF04C06F5F7F4F9D
:0A17A0008F4F9F4F0895F894FFCF7C
:0A17AA004269620041686D65640049
:00000001FF
