:100000000C942A000C943F000C943F000C943F0089
:100010000C943F000C943F000C943F000C943F0064
:100020000C943F000C943F000C943F000C943F0054
:100030000C943F000C943F000C943F000C943F0044
:100040000C943F000C943F000C943F000C943F0034
:100050000C943F0011241FBECFE5D8E0DEBFCDBF1A
:1000600010E0A0E6B0E0E2EBF4E102C005900D92F2
:10007000A038B107D9F70E94D3080C94570A0C9402
:100080000000CF93DF9300D0CDB7DEB789836A83BA
:100090008981882F90E08130910591F0823091051F
:1000A0001CF4892B39F01EC08230910579F003973A
:1000B00099F018C08AE390E02A81FC01208312C0E5
:1000C00087E390E02A81FC0120830CC084E390E068
:1000D0002A81FC01208306C081E390E02A81FC0193
:1000E0002083000000000F900F90DF91CF910895C2
:1000F000CF93DF9300D01F92CDB7DEB789836A8399
:100100004B838B81813009F067C08981882F90E013
:100110008130910511F1823091051CF4892B41F059
:100120005BC08230910571F1039709F440C054C05F
:100130008AE390E02AE330E0F9012081622F2A81EE
:10014000422F50E021E030E002C0220F331F4A95D9
:10015000E2F7262BFC0120833FC087E390E027E3F2
:1001600030E0F9012081622F2A81422F50E021E006
:1001700030E002C0220F331F4A95E2F7262BFC0124
:1001800020832AC084E390E024E330E0F901208159
:10019000622F2A81422F50E021E030E002C0220F7E
:1001A000331F4A95E2F7262BFC01208315C081E31B
:1001B00090E021E330E0F9012081622F2A81422F73
:1001C00050E021E030E002C0220F331F4A95E2F7F1
:1001D000262BFC01208300008B81882309F06BC053
:1001E0008981882F90E08130910519F18230910545
:1001F0001CF4892B41F05FC08230910581F1039797
:1002000009F443C058C08AE390E02AE330E0F901E2
:100210002081622F2A81422F50E021E030E002C08D
:10022000220F331F4A95E2F720952623FC012083F5
:1002300042C087E390E027E330E0F9012081622F9C
:100240002A81422F50E021E030E002C0220F331F0C
:100250004A95E2F720952623FC0120832CC084E3F5
:1002600090E024E330E0F9012081622F2A81422FBF
:1002700050E021E030E002C0220F331F4A95E2F740
:1002800020952623FC01208316C081E390E021E322
:1002900030E0F9012081622F2A81422F50E021E0D5
:1002A00030E002C0220F331F4A95E2F72095262343
:1002B000FC012083000000000F900F900F90DF9151
:1002C000CF910895CF93DF9300D0CDB7DEB7898368
:1002D0006A838981882F90E08130910591F0823086
:1002E00091051CF4892B39F01EC08230910579F0FC
:1002F000039799F018C08BE390E02A81FC012083DA
:1003000012C088E390E02A81FC0120830CC085E3C1
:1003100090E02A81FC01208306C082E390E02A81DC
:10032000FC012083000000000F900F90DF91CF911F
:100330000895CF93DF9300D01F92CDB7DEB78983A6
:100340006A834B838B81813009F067C08981882F54
:1003500090E08130910511F1823091051CF4892BD8
:1003600041F05BC08230910571F1039709F440C000
:1003700054C08BE390E02BE330E0F9012081622F41
:100380002A81422F50E021E030E002C0220F331FCB
:100390004A95E2F7262BFC0120833FC088E390E0DA
:1003A00028E330E0F9012081622F2A81422F50E0BA
:1003B00021E030E002C0220F331F4A95E2F7262BDE
:1003C000FC0120832AC085E390E025E330E0F901B9
:1003D0002081622F2A81422F50E021E030E002C0CC
:1003E000220F331F4A95E2F7262BFC01208315C00C
:1003F00082E390E022E330E0F9012081622F2A813C
:10040000422F50E021E030E002C0220F331F4A9516
:10041000E2F7262BFC01208300008B81882309F062
:100420006BC08981882F90E08130910519F182306D
:1004300091051CF4892B41F05FC08230910581F158
:10044000039709F443C058C08BE390E02BE330E0FE
:10045000F9012081622F2A81422F50E021E030E013
:1004600002C0220F331F4A95E2F720952623FC0194
:10047000208342C088E390E028E330E0F901208146
:10048000622F2A81422F50E021E030E002C0220F8B
:10049000331F4A95E2F720952623FC0120832CC0C8
:1004A00085E390E025E330E0F9012081622F2A8185
:1004B000422F50E021E030E002C0220F331F4A9566
:1004C000E2F720952623FC01208316C082E390E00A
:1004D00022E330E0F9012081622F2A81422F50E08F
:1004E00021E030E002C0220F331F4A95E2F7209549
:1004F0002623FC012083000000000F900F900F9036
:10050000DF91CF910895CF93DF931F92CDB7DEB7E0
:1005100089838981882F90E08130910589F082302C
:1005200091051CF4892B39F01AC08230910569F0CD
:10053000039781F014C089E390E0FC01808110C032
:1005400086E390E0FC0180810BC083E390E0FC0136
:10055000808106C080E390E0FC01808101C080E0E2
:100560000F90DF91CF910895CF93DF9300D0CDB757
:10057000DEB789836A838981882F90E08130910575
:10058000E1F0823091051CF4892B39F046C08230AD
:10059000910519F1039789F140C089E390E0FC01CE
:1005A0008081882F90E02A81222F30E002C095952B
:1005B00087952A95E2F7817031C086E390E0FC01CF
:1005C0008081882F90E02A81222F30E002C095950B
:1005D00087952A95E2F7817021C083E390E0FC01C2
:1005E0008081882F90E02A81222F30E002C09595EB
:1005F00087952A95E2F7817011C080E390E0FC01B5
:100600008081882F90E02A81222F30E002C09595CA
:1006100087952A95E2F7817001C08FEF0F900F90B8
:10062000DF91CF910895CF93DF9300D0CDB7DEB7A0
:1006300089836A838981882F90E08130910511F147
:10064000823091051CF4892B41F05BC0823091050A
:1006500071F1039709F440C054C08BE390E02BE3A1
:1006600030E0F9012081622F2A81422F50E021E001
:1006700030E002C0220F331F4A95E2F72627FC0123
:1006800020833FC088E390E028E330E0F901208137
:10069000622F2A81422F50E021E030E002C0220F79
:1006A000331F4A95E2F72627FC0120832AC085E301
:1006B00090E025E330E0F9012081622F2A81422F6A
:1006C00050E021E030E002C0220F331F4A95E2F7EC
:1006D0002627FC01208315C082E390E022E330E06E
:1006E000F9012081622F2A81422F50E021E030E081
:1006F00002C0220F331F4A95E2F72627FC01208310
:10070000000000000F900F90DF91CF910895CF93DC
:10071000DF9300D0CDB7DEB719821A82198227C0C5
:100720008981882F90E08C599F4FFC01208189811D
:10073000882F90E0805A9F4FFC01808140E0622F1B
:100740000E9478008981882F90E08C599F4FFC018E
:1007500020818981882F90E0805A9F4FFC01808101
:1007600041E0622F0E94990189818F5F898389818D
:100770008430B0F21A8215C08A81882F90E08459A3
:100780009F4FFC0120818A81882F90E088599F4FDC
:10079000FC01808141E0622F0E9478008A818F5F96
:1007A0008A838A81843040F300000F900F90DF919C
:1007B000CF910895CF93DF93CDB7DEB763970FB690
:1007C000F894DEBF0FBECDBF9B8B8A8B19821A8235
:1007D0001B82198215C08981882F90E084599F4F10
:1007E000FC0120818981882F90E088599F4FFC016E
:1007F000808141E0622F0E94990189818F5F898306
:100800008981843040F31982E4C08981882F90E087
:1008100084599F4FFC0120818981882F90E088595D
:100820009F4FFC01808140E0622F0E9499011A8253
:10083000B7C08A81882F90E08C599F4FFC0120819E
:100840008A81882F90E0805A9F4FFC018081622F1F
:100850000E94B4028B838B81882309F09EC080E0C4
:1008600090E0AAEFB3E48C839D83AE83BF8320E046
:1008700030E84BE355E46C817D818E819F810E943D
:10088000C209DC01CB0188879987AA87BB8720E052
:1008900030E040E85FE3688579858A859B850E9422
:1008A0003C0988232CF481E090E09D878C873FC031
:1008B00020E03FEF4FE757E4688579858A859B857F
:1008C0000E94BD0918164CF520E030E040E251E4EA
:1008D0006C817D818E819F810E94C209DC01CB01E8
:1008E000BC01CD010E944109DC01CB019D878C87B1
:1008F0000FC08CE291E09F878E878E859F85019740
:10090000F1F79F878E878C859D8501979D878C87C2
:100910008C859D85892B69F714C0688579858A85C2
:100920009B850E944109DC01CB019D878C878C85CA
:100930009D85998B888B888999890197F1F7998B87
:10094000888B8A81282F30E08981882F90E0220FC0
:10095000331F220F331F820F931F80599F4FFC01BB
:1009600020818A899B89FC01208312C08A81882F7B
:1009700090E08C599F4FFC0120818A81882F90E064
:10098000805A9F4FFC018081622F0E94B4028B83AA
:100990008B81882359F381E021C08A818F5F8A830C
:1009A0008A81843008F445CF8981882F90E084596A
:1009B0009F4FFC0120818981882F90E088599F4FAB
:1009C000FC01808141E0622F0E94990189818F5F43
:1009D00089838981843008F418CF80E063960FB64C
:1009E000F894DEBF0FBECDBFDF91CF910895CF93B6
:1009F000DF93CDB7DEB72F970FB6F894DEBF0FBEEB
:100A0000CDBF8F8741E060E082E00E94990140E025
:100A100061E082E00E9499016F8581E00E9462019D
:100A200041E062E082E00E94990180E090E0A0EA6B
:100A3000B0E489839A83AB83BC8320E030E84BE346
:100A400055E469817A818B819C810E94C209DC0115
:100A5000CB018D839E83AF83B88720E030E040E8F0
:100A60005FE36D817E818F8198850E943C09882398
:100A70002CF481E090E09A8789873FC020E03FEF27
:100A80004FE757E46D817E818F8198850E94BD0973
:100A900018164CF520E030E040E251E469817A819B
:100AA0008B819C810E94C209DC01CB01BC01CD017C
:100AB0000E944109DC01CB019A8789870FC08CE233
:100AC00091E09C878B878B859C850197F1F79C87AC
:100AD0008B8789859A8501979A87898789859A85E1
:100AE000892B69F714C06D817E818F8198850E9462
:100AF0004109DC01CB019A87898789859A859E8780
:100B00008D878D859E850197F1F79E878D8740E0C3
:100B100062E082E00E94990100002F960FB6F894DF
:100B2000DEBF0FBECDBFDF91CF910895CF93DF938E
:100B3000CDB7DEB72F970FB6F894DEBF0FBECDBF8F
:100B40008F8740E060E082E00E94990140E061E030
:100B500082E00E9499016F8581E00E94620141E07C
:100B600062E082E00E94990180E090E0A0EAB0E4B7
:100B700089839A83AB83BC8320E030E84BE355E460
:100B800069817A818B819C810E94C209DC01CB0141
:100B90008D839E83AF83B88720E030E040E85FE339
:100BA0006D817E818F8198850E943C0988232CF479
:100BB00081E090E09A8789873FC020E03FEF4FE7D0
:100BC00057E46D817E818F8198850E94BD0918163A
:100BD0004CF520E030E040E251E469817A818B817C
:100BE0009C810E94C209DC01CB01BC01CD010E94A5
:100BF0004109DC01CB019A8789870FC08CE291E023
:100C00009C878B878B859C850197F1F79C878B87C9
:100C100089859A8501979A87898789859A85892BFD
:100C200069F714C06D817E818F8198850E9441098A
:100C3000DC01CB019A87898789859A859E878D8774
:100C40008D859E850197F1F79E878D8740E062E054
:100C500082E00E94990100002F960FB6F894DEBF43
:100C60000FBECDBFDF91CF910895CF93DF93CDB766
:100C7000DEB7E8970FB6F894DEBF0FBECDBF41E0F8
:100C800060E082E00E94780041E062E082E00E9441
:100C9000780041E061E082E00E9478006FEF81E03F
:100CA0000E94410080E090E0A8E4B2E489839A8346
:100CB000AB83BC8320E030E84BE355E469817A8163
:100CC0008B819C810E94C209DC01CB018FA798AB6C
:100CD000A9ABBAAB20E030E040E85FE36FA578A9AC
:100CE00089A99AA90E943C0988232CF481E090E00C
:100CF0009CAB8BAB3FC020E03FEF4FE757E46FA5C5
:100D000078A989A99AA90E94BD0918164CF520E076
:100D100030E040E251E469817A818B819C810E94BC
:100D2000C209DC01CB01BC01CD010E944109DC01FB
:100D3000CB019CAB8BAB0FC08CE291E09EAB8DAB3B
:100D40008DA99EA90197F1F79EAB8DAB8BA99CA9AC
:100D500001979CAB8BAB8BA99CA9892B69F714C01D
:100D60006FA578A989A99AA90E944109DC01CB0144
:100D70009CAB8BAB8BA99CA998AF8FAB8FA998AD7F
:100D80000197F1F798AF8FAB88E30E94960580E05A
:100D900090E0A0E0B0E48D839E83AF83B88720E02D
:100DA00030E84BE355E46D817E818F8198850E9408
:100DB000C209DC01CB018DA39EA3AFA3B8A720E09D
:100DC00030E040E85FE36DA17EA18FA198A50E946D
:100DD0003C0988232CF481E090E09AA789A73FC0C2
:100DE00020E03FEF4FE757E46DA17EA18FA198A5CA
:100DF0000E94BD0918164CF520E030E040E251E4B5
:100E00006D817E818F8198850E94C209DC01CB01B2
:100E1000BC01CD010E944109DC01CB019AA789A741
:100E20000FC08CE291E09CA78BA78BA59CA5019796
:100E3000F1F79CA78BA789A59AA501979AA789A7DF
:100E400089A59AA5892B69F714C06DA17EA18FA1F0
:100E500098A50E944109DC01CB019AA789A789A521
:100E60009AA59EA78DA78DA59EA50197F1F79EA790
:100E70008DA78EE00E94960580E090E0A0E0B0E4AF
:100E800089879A87AB87BC8720E030E84BE355E43D
:100E900069857A858B859C850E94C209DC01CB011E
:100EA0008B8F9C8FAD8FBE8F20E030E040E85FE3FA
:100EB0006B8D7C8D8D8D9E8D0E943C0988232CF43A
:100EC00081E090E098A38F8F3FC020E03FEF4FE795
:100ED00057E46B8D7C8D8D8D9E8D0E94BD091816FB
:100EE0004CF520E030E040E251E469857A858B855D
:100EF0009C850E94C209DC01CB01BC01CD010E948E
:100F00004109DC01CB0198A38F8F0FC08CE291E0E7
:100F10009AA389A389A19AA10197F1F79AA389A31A
:100F20008F8D98A1019798A38F8F8F8D98A1892B72
:100F300069F714C06B8D7C8D8D8D9E8D0E9441094B
:100F4000DC01CB0198A38F8F8F8D98A19CA38BA3DD
:100F50008BA19CA10197F1F79CA38BA381E00E9438
:100F6000960580E090E0A8E4B2E48D879E87AF8785
:100F7000B88B20E030E84BE355E46D857E858F85A6
:100F800098890E94C209DC01CB01898B9A8BAB8BBB
:100F9000BC8B20E030E040E85FE369897A898B8987
:100FA0009C890E943C0988232CF481E090E09E8B70
:100FB0008D8B3FC020E03FEF4FE757E469897A8986
:100FC0008B899C890E94BD0918164CF520E030E001
:100FD00040E251E46D857E858F8598890E94C20923
:100FE000DC01CB01BC01CD010E944109DC01CB0138
:100FF0009E8B8D8B0FC08CE291E0988F8F8B8F89A9
:10100000988D0197F1F7988F8F8B8D899E89019725
:101010009E8B8D8B8D899E89892B69F714C0698978
:101020007A898B899C890E944109DC01CB019E8BC6
:101030008D8B8D899E899A8F898F898D9A8D019745
:10104000F1F79A8F898F0000E8960FB6F894DEBF0B
:101050000FBECDBFDF91CF910895CF93DF9300D026
:10106000CDB7DEB789836A838981882321F48A8199
:1010700080580E9496058981813021F48A818054AC
:101080000E94960500000F900F90DF91CF91089578
:10109000CF93DF9300D000D0CDB7DEB79B838A8398
:1010A0006C8319820EC08981882F90E02A813B8150
:1010B000820F931FFC0180810E94F70489818F5F5A
:1010C000898399818C81981770F300000F900F909D
:1010D0000F900F90DF91CF910895CF93DF93CDB70D
:1010E000DEB727970FB6F894DEBF0FBECDBF9F8344
:1010F0008E8381E090E09A8389838E819F819923FA
:10110000C4F48DE20E94F7048E819F8191958195B0
:1011100091099F838E830DC089819A81880F991FC1
:101120009C01220F331F220F331F820F931F9A83BC
:1011300089838E819F8129813A81B9010E94140996
:10114000CB010A9748F789819A819C838B831CC0C5
:101150008E819F812B813C81B9010E942809CB019E
:101160002AE030E0B9010E9428098D838D81805DDD
:101170000E94F7048B819C812AE030E0B9010E9433
:101180002809CB019C838B838B819C8118161906BF
:10119000FCF2000027960FB6F894DEBF0FBECDBF5D
:1011A000DF91CF910895CF93DF93CDB7DEB76497EA
:1011B0000FB6F894DEBF0FBECDBF0E9487030E941A
:1011C000350619821A82CE0104960E94DA038B83B7
:1011D0008B818130C1F78C810E94F7048981882F2F
:1011E00090E04C819E012B5F3F4F820F931FFC01CB
:1011F00040838981882F90E09E012B5F3F4F820FB3
:10120000931FFC0180818D3359F49D818F81890F5B
:101210008A838A81882F90E0805691090E946D0808
:1012200089818F5F8983CFCFAA1BBB1B51E107C088
:10123000AA1FBB1FA617B70710F0A61BB70B881F66
:10124000991F5A95A9F780959095BC01CD010895F5
:1012500097FB072E16F4009407D077FD09D00E9463
:10126000140907FC05D03EF4909581959F4F089591
:10127000709561957F4F08950E94700908F481E090
:1012800008950E949C0988F09F5798F0B92F9927DC
:10129000B751B0F0E1F0660F771F881F991F1AF061
:1012A000BA95C9F714C0B13091F00E94B609B1E007
:1012B00008950C94B609672F782F8827B85F39F006
:1012C000B93FCCF3869577956795B395D9F73EF4FA
:1012D00090958095709561957F4F8F4F9F4F0895A2
:1012E000990F0008550FAA0BE0E8FEEF1616170637
:1012F000E807F907C0F012161306E407F50798F09F
:10130000621B730B840B950B39F40A2661F0232BB7
:10131000242B252B21F408950A2609F4A140A69533
:101320008FEF811D811D089557FD9058440F551F63
:1013300059F05F3F71F04795880F97FB991F61F057
:101340009F3F79F087950895121613061406551FCE
:10135000F2CF4695F1DF08C0161617061806991F3A
:10136000F1CF86957105610508940895E894BB272F
:1013700066277727CB0197F908950E94700908F432
:101380008FEF08950E94D5090C94460A0E94380AEE
:1013900038F00E943F0A20F0952311F00C942F0A98
:1013A0000C94350A11240C94B7090E94940970F327
:1013B000959FC1F3950F50E0551F629FF001729FFA
:1013C000BB27F00DB11D639FAA27F00DB11DAA1F09
:1013D000649F6627B00DA11D661F829F2227B00D56
:1013E000A11D621F739FB00DA11D621F839FA00DE1
:1013F000611D221F749F3327A00D611D231F849F31
:10140000600D211D822F762F6A2F11249F57504087
:101410009AF0F1F088234AF0EE0FFF1FBB1F661F02
:10142000771F881F91505040A9F79E3F510580F0CB
:101430000C942F0A0C94B7095F3FE4F3983ED4F361
:10144000869577956795B795F795E7959F5FC1F76F
:10145000FE2B880F911D9695879597F9089597F91A
:101460009F6780E870E060E008959FEF80EC08954A
:1014700000240A9416161706180609060895002473
:101480000A9412161306140605060895092E0394ED
:10149000000C11F4882352F0BB0F40F4BF2B11F461
:1014A00060FF04C06F5F7F4F8F4F9F4F0895F89488
:0214B000FFCF6C
:1014B20003030303000102030303030304050607F6
:1014C2003132334134353642373839432A302344B6
:00000001FF
